:020000002B2EA5
:0E000600533083120313FD00FD0B0728080082
:10001400243083120313FC00B530FD00FD0B1028BF
:0A002400FC0B10280000000008008B
:0C002E00000000000000000000000800BE
:10003A007B15FB1F27280130F300F201F101F001C3
:08004A00FA0DF20CFF30080072
:0E005200F201F101F001F801F30100300800A5
:1000600083160313C61B37288312081239288312FC
:1000700008168316461B3F288312881241288312D4
:1000800088168316C61A4728831208134928831234
:1000900008178316461A4F28831288135128831293
:1000A00088176B19552806165628061206151720AC
:1000B00006118316C6195F2883120812612883125D
:1000C0000816831646196728831288126928831236
:1000D00088168316C6186F28831208137128831296
:1000E00008178316461877288312881379288312F5
:1000F00088176B197D2806167E280612061517200C
:0E01000006116B1D85280A20862803200800A2
:08010E00FA1FF2130030080093
:06011600FB15FF3008009C
:10011C00043083120313FC003A30FD00FD0B9428CD
:08012C00FC0B94280000080000
:10013400831203136B1183164408C60030206B1519
:020144000800B1
:10014600A0017208031DB8287108F2007008F100BA
:10015600F001A0157208031DB8287108F200F1011C
:10016600A011201672080319C6282008F302031DE1
:10017600031CCA280310F21BCE28F00DF10DF20D58
:10018600F30BBE28CA280130FC002920D1280230F2
:0E019600FC001D20D1280430FC00872008004A
:1001A400243083120313FD00FD0BD6280000080041
:1001B400FE28303083120313F00051293130F0004F
:1001C40051293230F00051293330F00051293430B4
:1001D400F00051293530F00051293630F000512912
:1001E4003730F00051293830F00051293930F0000F
:1001F40051292E30F000512903130030831645068F
:10020400031D0629003044060319DB280030450687
:10021400031D0E29013044060319E0280030450669
:10022400031D1629023044060319E328003045064D
:10023400031D1E29033044060319E6280030450631
:10024400031D2629043044060319E9280030450615
:10025400031D2E29053044060319EC2800304506F9
:10026400031D3629063044060319EF2800304506DD
:10027400031D3E29073044060319F22800304506C1
:10028400031D4629083044060319F52800304506A5
:10029400031D4E29093044060319F828FB280800D9
:1002A40083120313F801F9011030FC00710DF80DED
:1002B400F90D7408F8027508031C750FF902031888
:1002C4006A297408F80775080318750FF9070310ED
:0A02D400F00DF10DFC0B5829080095
:1002DE00FB14FB1F7929FF30F300F200F100F00050
:0802EE00FA0DF20CFF300800CC
:1002F6007B14FB1F8629F201FA1FFF30F200F10082
:0A030600F000FA0DF20CFF300800C1
:10031000831203139F01C0309F046209F00070082C
:1003200083169F051F179F173E08F000F00D7010F1
:10033000F00D7010F00D7010700883129F041F14E0
:10034000D2201F151F1DA6290000A2291F101E085C
:10035000F100F00183161E08F0040030F1040800DB
:10036000633083160313C0004008C1001030F4004E
:100370002730F5003E08F0003F08F10052217008D8
:100380008316C4007108C500DA20831603134108E0
:10039000840070088000400AC100E830F400033097
:1003A000F5003E08F0003F08F10052210A30F40049
:1003B0000030F50052217808F0007908F10070084B
:1003C0008316C4007108C500DA20831603134108A0
:1003D00084007008800003304007C1006430F400DE
:1003E0000030F5003E08F0003F08F10052210A30CD
:1003F000F4000030F50052217808F0007908F1008F
:1004000070088316C4007108C500DA208316031330
:10041000410884007008800004304007C1000A30A1
:10042000F4000030F5003E08F0003F08F1005221D2
:100430000A30F4000030F50052217808F000790805
:10044000F10070088316C4007108C500DA20831615
:10045000031341088400700880004008F000080081
:1004600083120313FB01FC01FA01730803196F2ABD
:10047000F2178E30F302F31B402A0319402A722A26
:10048000F309F30A08307302031C552AF300F10D37
:100490007208F100F20108307302031C552AF10DB5
:1004A000F1017308031D03105D2A730803195D2A07
:1004B0000310F20CF10CF30B582A7B1B711C672AFA
:1004C000031C672AF10A0319F20AF21B7E2AFA1F9B
:1004D000812AF209F109F10A0319F20A812AF201CB
:1004E000F101812A7B14FB1F842AF201FA1F842A5E
:1004F000FF30F200F100FA0DF20C842A0130FC000A
:10050000862A0030FC00862AFF30FC00FC08031914
:0E0510008A2A7B217108F0007208F1000800B1
:10051E00831203137408003A031DAA2A7508003AC1
:10052E00031DAA2A7608003A031DAA2A7708003A64
:10053E00031DAA2AFF30F000FF30F1007F30F200D9
:10054E00FF30F300452B8312031377080319392B61
:10055E00730803193C2B720876068039FA00F217DD
:10056E00F617A0017208F8007108FC007008FD0073
:10057E007408FD027508031C750FFC027608031C37
:10058E00760FF802F801FC01FD01031CD52A0310B9
:10059E00F20CF10CF00CF80C0130A0007708F3020D
:1005AE00031CDF2A7E302007F30703183F2BE42AB3
:1005BE007E302007F307031C422B1830FA07FD0D7F
:1005CE00FC0DF80DF00DF10DF20DA00D7408F002FA
:1005DE007508031C750FF1027608031C760FF202E4
:1005EE00760DA004201CFD2A7D14082B7408F0073C
:1005FE0075080318750FF10776080318760AF207C7
:10060E007D10FA031F307A05031DE62A7B1B7D1C25
:10061E002F2B0310F00DF10DF20DA00D7408F0024A
:10062E007508031C750FF1027608031C760FF20293
:10063E00760D20040139FD070318FC0A0319F80A88
:10064E00031D2F2BF80CFC0CFD0CF30A03193F2B8A
:10065E00FA1FF8137808F2007C08F1007D08F0000C
:10066E000030442B01308B20442B02302920442BA8
:0E067E0004306F21442B08301D2000000800BE
:10068C00582B803083160313BE006B2BC030BE007A
:10069C006B2B9430BE006B2BD430BE006B2B803098
:1006AC00BE006B2B831603133E08013A0319472B2C
:1006BC003E08023A03194C2B3E08033A03194F2B00
:1006CC003E08043A0319522B552B3F03F0003E0809
:1006DC00F0077008BE007008C60030206B1183163E
:1006EC00C10141084007840000080319862B41080A
:1006FC00400784000008C4009A208316C10A772B97
:06070C0083126B150800CA
:0E071200831203136D088A006C088200080031
:1007200083120313FB017308031D77080319E72BDA
:1007300072087606FA007708F3077E30031CA42BB4
:10074000F3020318EA2BA72BF302031CED2B72080C
:10075000F8007108FC007008FD00F817F617031088
:10076000F201F101F0011830A0007D1CC12B7408CA
:10077000F00775080318750FF10776080318760F50
:10078000F207F20CF10CF00CF80CFC0CFD0C031051
:10079000A00BB52BF21BD12BF80DF00DF10DF20DC6
:1007A000F3037B1B701CE32BF81FE32BF00A0319E8
:1007B000F10A0319F20A031DE32BF20CF10CF00C01
:1007C000F30A0319EA2BFA1FF2130030EF2B013062
:1007D0002920EF2B02306F21EF2B04301D20000069
:0207E00008000F
:1007E20083160313C3013F08F1000130F0007108C2
:1007F2000319FF2BF00D7010FF3EF92B7008C20099
:100802003E08840070080005F10071080130031DE4
:100812000030F0004108F0060319282C4008003C83
:100822000318182C8E208E208316C0030F2C3E082E
:10083200840042080005F10071080130031D0030F8
:10084200F0004108F0060319282CFF30C3004308CA
:04085200F0000800AA
:10085600831203137008F8007108F000F101F20129
:10086600F301FB01FC019630F300FA017008F10078
:0C0876007808F000F801F201A32008004F
:10088200831603133A08F0003B08F1002B24E130F1
:10089200F4007A30F5001C30F6008130F700902326
:1008A2000030F4000030F5004030F6008130F700EF
:1008B2009023302270088316BA007108BB007008BA
:1008C200BE007108BF00B0217008C0000230BE0037
:1008D2000130BF00462302308316BE000630BF003F
:1008E2003030C000462383163C08F0003D08F1007A
:1008F2002B24E130F4007A30F5001C30F600813010
:10090200F7009023302270088316BC007108BD00E6
:100912007008C43CF0007108031C013E093CF10060
:100922002B24CD30F400CC30F5004C30F6007B3077
:10093200F7008F22302270088316BC007108BD00B8
:100942007008BE007108BF00B0217008C0000230FC
:10095200BE000B30BF00462302308316BE001030AB
:10096200BF002E30C00046230330FB008A30FC005B
:100972005530FD00FD0BBB2CFC0BBB2CFB0BBB2C29
:0609820000000000080067
:10098800013083160313BE0088217008BA0071086D
:10099800BB002B24E130F4007A30F5001C30F6005F
:1009A8008130F70090230030F4000030F50040302B
:1009B800F6008130F7009023302270088316BA00C1
:1009C8007108BB000130BE000130BF002330C000F9
:1009D800462383163A08BE003B08BF00B0217008C2
:1009E800C0000130BE000B30BF0046230130831623
:1009F800BE001030BF002130C000462303308316EC
:100A0800BE0088217008BC007108BD002B24E130AD
:100A1800F4007A30F5001C30F6008130F70090239E
:100A2800302270088316BC007108BD007008C43CF1
:100A3800F0007108031C013E093CF1002B24CD3065
:100A4800F400CC30F5004C30F6007B30F7008F22F4
:100A5800302270088316BC007108BD000230BE0049
:100A68000130BF003530C000462383163C08BE0065
:100A78003D08BF00B0217008C0000230BE000B3036
:100A8800BF00462302308316BE001030BF00693015
:100A9800C00046230330FB008A30FC005530FD00BF
:100AA800FD0B542DFC0B542DFB0B542D00000000A6
:020AB800080034
:100ABA0083160313BB01BC010630BE00BF0101301F
:100ACA00C000C101F12370080319A82D8316BB0ABF
:100ADA000319BC0A0230FB004530FC00A930FD00B6
:100AEA00FD0B752DFC0B752DFB0B752D0000000001
:100AFA008030F00080303C067002031D862D3B08D2
:100B0A00143C0318992D83126B1C8E2D8316BA017F
:100B1A00912D83160130BA003A18962D83126B1064
:100B2A00982D83126B14A82D06308316BE00BF01C0
:100B3A000130C000C101F1237008031DA72D8312E3
:080B4A00EB14A82D6B2D08002F
:100B5200FF3083160313B100FF30B200FF30B30041
:100B6200FF3083129F01C0309F046209F0007008B9
:0E0B720083169F051F179F1783121F1408007C
:100B8000831603130611061288130813881208121D
:100B900083120611061208128812081388130A20FD
:100BA0000A200A20081788170615172006110A20A0
:100BB0000615172006110A200615172006110A200F
:100BC00088130615172006110A200615172006118E
:100BD000081308160615172006110A200812881790
:100BE00006151720061188130615172006110A206E
:100BF00006151720061188170615172006110A205A
:100C00008813061517200611081688160817881766
:0C0C10000615172006110A206B150800BD
:100C1C0089238A110A128000840AEC0A0319ED0A4E
:080C2C00F003031D0E2E080069
:100C3400013083160313BE0088217008B8007108C0
:100C4400B9000330BE0088217008B6007108B700EF
:020C5400080096
:100C5600FC2683160313861183128611073083162A
:100C66009C00FF3085008312850183169F01C025F5
:100C7600A92501308316C60030200C308316C60025
:100C860030206B10EB100D30FB00AF30FC00B6309F
:100C9600FD00FD0B4C2EFC0B4C2EFB0B4C2E0000CE
:100CA6005D25831203136B1C6B2E01308316BE0069
:100CB6000130BF00A030C000462383163808BA00B2
:100CC6003908BB003608BC003708BD004124992E00
:100CD60083163408BA003508BB0083126E088316E3
:100CE600BC0083126F088316BD00C424EB1C992E2A
:100CF6001A260130BE000130BF005130C000462325
:100D060002308316BE000130BF004030C0004623CB
:100D1600EB100D30FB00AF30FC00B630FD00FD0BD4
:100D2600922EFC0B922EFB0B922E0000462E9A2E34
:100DF80021308400423083120313F000A030EC004D
:100E08000630ED000E26A030840011300313F000E8
:100E1800E230EC000630ED000E2663308400083026
:100E28000313F000F330EC000630ED000E26080046
:040D400056340034F1
:100D440056346F346C34743461346734653420340D
:060D54003D3420340034A0
:040D5A0041340034EC
:0A0D5E0056342034203420340034D1
:100D6800433475347234723465346E3474342034D8
:060D78003D34203400347C
:100D7E0020342034203420342034203420342034C5
:100D8E0020342034203420342034203420342034B5
:020D9E0000341F
:100DA000563461346C3475346534203453347434BF
:100DB0006F34723465346434203420342034203469
:020DC0000034FD
:020DC2000F34EC
:100DC400533474346F347234653464342034563498
:100DD40061346C34753465343A342034203420342E
:020DE4000034D9
:0C0DE600303430342E34303430340034DB
:040DF2004134003454
:02400E004A2F37
:00000001FF
